:1000000080150020F115000077410000C5150000A3
:10001000C5150000C5150000C51500000000000052
:100020000000000000000000000000002D12000091
:10003000C515000000000000D9110000C515000022
:10004000DD120000DD120000DD120000DD120000F4
:10005000DD120000DD120000DD120000DD120000E4
:10006000DD120000DD120000DD120000DD120000D4
:10007000DD120000DD120000DD120000DD120000C4
:10008000DD120000DD120000DD120000DD120000B4
:10009000DD120000DD120000DD120000DD120000A4
:1000A000DD120000DD120000DD120000DD12000094
:1000B000DD120000DD120000DD120000DD12000084
:1000C000DD120000DD120000DD120000DD12000074
:1000D000DD120000DD120000DD120000DD12000064
:1000E000DD120000DD120000DD120000DD12000054
:1000F000DD120000DD120000DD120000DD12000044
:1001000053B94AB9002908BF00281CBF4FF0FF317E
:100110004FF0FF3000F00CB8ADF1080C6DE904CEE3
:1001200000F008F8DDF804E0DDE9022304B07047D0
:10013000704700BF2DE9F04786468C460846089E6A
:10014000154674461946002B40F0C2808542B2FA2B
:1001500082F245D94AB1C2F1200300FA02FC2EFA1C
:1001600003F3954043EA0C0C94404FEA154EA8B2B5
:10017000BCFBFEF8230C0EFB18CC08FB00F943EA8D
:100180000C43994528D9EB1808F1FF3704D299455B
:1001900002D9A8F102072B44A3EB0903A4B2B3FBD5
:1001A000FEFC0EFB1C330CFB00F044EA0344A042AF
:1001B00014D92C190CF1FF3304D2A04202D9ACF1AE
:1001C00002032C44241A43EA07401EB1D440002302
:1001D00034607360BDE8F0874746DDE76346F1E7CA
:1001E00092BB431B01214FEA154EAFB2B3FBFEFC9D
:1001F000200C0EFB1C330CFB07F840EA0343984528
:1002000062D9EB180CF1FF3004D2984502D9ACF159
:1002100002002B44A3EB0803A4B2B3FBFEFC0EFBCD
:100220001C330CFB07F744EA0344A7424ED92C19B0
:100230000CF1FF3304D2A74202D9ACF102032C44E3
:10024000E41B43EA0040C0E7C2F1200320FA03F1B7
:10025000954090402EFA03F303434FEA154EAFB298
:10026000B1FBFEFC0EFB1C10190C0CFB07F841EA5D
:100270000041884504FA02F422D969180CF1FF30D4
:1002800004D2884502D9ACF102002944A1EB08014F
:100290009BB2B1FBFEFC0EFB1C110CFB07F743EA03
:1002A00001439F420ED9EB180CF1FF3104D29F425B
:1002B00002D9ACF102012B44DB1B41EA004192E779
:1002C0006046E3E76146F7E76046A3E76346B7E7C2
:1002D000834206D916B9002108467BE7C6E900E04B
:1002E000F9E7B3FA83F78FB9834201D3724508D88F
:1002F000BEEB020460EB030301209C461EB9002103
:1003000068E73846FAE7C6E9004CF8E7C7F1200C81
:10031000BB4022FA0CF41C432EFA0CF120FA0CF329
:10032000B84001434FEA14490EFA07F5B3FBF9F858
:100330001FFA84FE09FB18300B0C08FB0EFA43EA87
:1003400000439A4502FA07F240D9E31808F1FF305A
:1003500004D29A4502D9A8F102002344A3EB0A0370
:1003600089B2B3FBF9F809FB183308FB0EFE41EA2A
:1003700003418E452CD9611808F1FF3304D28E4514
:1003800002D9A8F10203214443EA0040A0FB0298ED
:10039000A1EB0E014145CE46434602D306D14D4561
:1003A00004D2B9EB020E68EB04030138002EA6D08C
:1003B000B5EB0E0261EB030101FA0CFC22FA07F324
:1003C0004CEA0303F940C6E9003198E74046C5E727
:1003D0004346D9E738B5104C204604F044F9C8B17B
:1003E0002269A568136843F4005313602B680B4A15
:1003F0000D212046984700280CDB4FF400516B6913
:1004000020469847002805DB00214FF4004003F008
:1004100077FBF2E7002038BDFC4800000100060031
:10042000014B1B68184700BF08000020014B1860F3
:10043000704700BF0800002007B50B4600210246A8
:100440000091034800F014F903B05DF804FB00BF0D
:10045000210400002DE9F047058B0446280790464B
:1004600011D4022905F0070540F0CD80204603F0A5
:1004700041FD78B10138218B042811D8DFE800F064
:10048000C3106D85950001290CBF45F0100545F09E
:100490002005258388F31188BFF36F8FBDE8F087AF
:1004A00001F0070AAA4500F0A6800027B9463E469B
:1004B000A368002B00F0BD8041F00801218388F380
:1004C0001188BFF36F8FA168002900F0BB800D6811
:1004D000002900F0B780D1F8048033465246204608
:1004E000C047002D76D02B6829461D46F0E701F065
:1004F00007035A1F012A1BD8002221F00701062BEF
:10050000276889B2C4E9002209D13B4603E0628B27
:10051000013262831B68002BF9D141F00201218373
:10052000204603F0E7FC00287BD041F0200177E073
:10053000042B0AD121F0070189B22183204603F060
:10054000D9FC10B141F020012183218B01F0070A71
:10055000AA4550D00027B946AAE7236921F0070130
:1005600041F00601062DD3F8009021832DD1B9F179
:10057000000F40D041F00801218388F31188BFF3B8
:100580006F8F3A492046C84729E021F007012369C7
:1005900041F0040189B2042DD3F804902183E6D000
:1005A00000273E464FF0040A82E721F00701236945
:1005B00041F0050189B2052DD3F808902183D6D0EA
:1005C00000273E464FF0050A72E700273E464FF0EF
:1005D000060A6DE72B4687E7B9F1000FD1D14FF03E
:1005E0002003EFF3118883F31288BFF36F8F238BFF
:1005F00023F008032383258BEA062ED525F010036C
:10060000238305F007056669218B002EBFF66FAFC7
:1006100000232768C4E9003321F0070141F00101FC
:100620002183218B01F0070AAA454FF000097FF4CE
:100630003FAF002F9BD041F00801218388F3118840
:10064000BFF36F8F002FC7D03D68394633465246FF
:10065000204603F07BFC2F46F4E7AB067FF51AAF8C
:1006600025F02003238305F00705FFE6793F00000E
:100670002DE9F04F814695B08B4617461C46002564
:10068000387808B9284658E37B1C2528039306D000
:100690005946C8470028C0F250830135FBE11822B3
:1006A00000210EA803F08AFD7B78252B7DD0002346
:1006B000781C98469E469C461E46014610F8012B23
:1006C0002B2A00F0A18000F29880202A00F09F8061
:1006D000232A00F09F802BB19DF8403043F0400367
:1006E0008DF84030B8F1000F05D09DF8403043F050
:1006F00020038DF84030BEF1000F05D09DF840304A
:1007000043F010038DF84030BCF1000F05D09DF888
:10071000403043F008038DF840302EB19DF8403052
:1007200043F004038DF840309DF8403003F044005E
:10073000442803D16FF386138DF840309DF8403084
:100740002A2A43F080038DF840307FD19DF8412064
:1007500042F001024B1C8DF841201A782E2A9DF898
:1007600041200CBF0121002161F341028DF841209D
:1007700078D15A782A2A6ED0013300224FF00A0C21
:10078000194611F8010BA0F13006092E40F29580B0
:100790009DF840101292C1F3400040EAD2700A4620
:1007A00060F341028DF840205CE0BA1C03928DF8A2
:1007B00043309DF84130DA0740F12E8154F8048B24
:1007C000B8F1000F07DA9DF8402042F004028DF8DE
:1007D0004020C8F100085E0740F1278154F804ABBF
:1007E000BAF1000F80F226819DF841306FF341038A
:1007F0008DF841304FF0FF3A1CE12D2A0DD0302A00
:100800007FF469AF012358E74FF0010C55E74FF033
:10081000010E52E74FF001084FE701264DE70EFBAE
:100820000262303A0346184610F8016BA6F1300C0C
:10083000BCF1090FF3D999428FD09DF84010119265
:10084000D20F62F341018DF8401086E70B4600227B
:100850004FF00A0EE7E79DF8412042F004028DF8C0
:10086000412002331A786C2A47D02BD8682A31D01D
:100870006A2A4BD04C2A51D01A4612F8013B0392F7
:10088000782B9DF841208DF8433000F2BE806D2B0F
:1008900051D8692B00F2B980572B67D8412B03D070
:1008A000453B022B00F2B1809DF84230042262F3F6
:1008B00002038DF84230012373E00CFB0202303A50
:1008C0000B465DE7742A25D07A2AD5D19DF84120C0
:1008D00006210CE05A78682A9DF8412006D10121B2
:1008E00061F3C6028DF841200233C5E7022161F3AE
:1008F000C6028DF841200133BEE75A786C2A9DF874
:10090000412001D10421EBE70321F0E79DF84120CC
:100910000521ECE79DF841200721E8E7BDF84020DC
:1009200022F4F04222F0020242F4804242F002023B
:10093000ADF84020DFE76E3BD9B201238B4040F297
:1009400082410B4237D113F0240F51D1D8075CD527
:100950009DF84230032161F302038DF8423002F02A
:100960007803A3F140014B424B411AE0A3F1580137
:10097000C9B2012000FA01F111F4624F94D140F69E
:10098000010631421DD111F4043F3ED09DF84230A2
:1009900060F3020302F07802402A8DF8423034D02E
:1009A00000239DF84020C2F340010B4363F3410252
:1009B0008DF84020FDE69DF84230022161F30203EC
:1009C000E8E79DF84210022002F0780260F302018D
:1009D000402A8DF8421002BF9DF8401041F00101FD
:1009E0008DF84010632BDBD1131E18BF0123D8E70D
:1009F0009DF84230032161F3020312F0780F8DF865
:100A0000423014BF01230023CBE79DF8403043F070
:100A100001038DF84030C3E79DF94020002AB4BFA0
:100A2000DDF844804FF0FF38D5E698077FF5E2AE59
:100A3000DDF848A09DF841100023CDE911339DF861
:100A4000423003F00703012BC1F3C30133D1CB1EA6
:100A5000042B04D8DFE803F0214646212100236857
:100A600001294FEAE372CDE90E321CD19DF93830ED
:100A7000DA17CDE90E3204349DF8403013F0030646
:100A800050D0039B3A465946484603F052FB002893
:100A9000C0F253810544039FF2E554F8043BDA1792
:100AA000CDE90E32E8E70229E5D11AB243F3C033AB
:100AB000CDE90E23DFE7022B24D1CB1E042B04D873
:100AC000DFE803F0181010181800012954F8043B4F
:100AD0004FF0000214D00229CDE90E32CCD19BB2E6
:100AE0000E93C9E7073424F00704F4E80223CDE9A4
:100AF0000E23C1E754F8043B0E9300230F93BBE78A
:100B0000DBB2CDE7042B08D1073424F00704D4E985
:100B100000230834CDE90E23AEE7032BACD154F803
:100B2000043BDDE79DF843007828B4D862281CD840
:100B300025283FF4ADAD5828ADD10DF13603009313
:100B4000DDE90E0108AB10AA03F0ADFABAF1000F0F
:100B5000074680F29A80002F9DD00DF13603D81BF6
:100B6000002E00F0C1800130BEE06338152892D815
:100B700001A252F820F000BF4D0C00005F0C0000F5
:100B8000970A0000970A0000970A0000970A0000E1
:100B90005F0C0000970A0000970A0000970A000007
:100BA000970A0000ED0C0000850C0000AB0C000063
:100BB000970A0000970A0000D10B0000970A000076
:100BC000850C0000970A0000970A0000850C0000C1
:100BD000BAF1000F0E9F35DB5146384603F0FAFAA2
:100BE00007EB000A002F3FF456AF00269DF8423075
:100BF00013F01002059200F0938002305B06119A08
:100C000048BF129B0492104448BFC018B8F1000FAF
:100C100040F3A0809DF84020A8EB0008C2F38003B9
:100C20005007069300F19680510640F189803EB14D
:100C300059463046C84700287FDB069B01351E46D3
:100C400030227EE0384603F0A7FAC9E70E9B8DF804
:100C50002030002608AF0DF1210A0120C6E7190750
:100C60005CBFC3F300135E01DDE90E2348BF2B26F2
:100C7000002BBFF662AF524263EB4303CDE90E2374
:100C80002D265AE7002658E700269DF840200DF152
:100C90003603DB1B6FF386129A458DF840207FF6F2
:100CA0005AAFAAEB0303119355E70E9890B30DF1D9
:100CB0003603009310AA08AB002103F0F4F9BDF845
:100CC000423003F0EF0343F4F04343F01003BAF172
:100CD000000F0746ADF84230D6DA00283FF4DBAE0D
:100CE0000DF13603181A00269A467FE70E9B072956
:100CF0003FF6D1AEDFE801F00C04060C08080C0C3E
:100D00001D70C8E61D80C6E6EA17C3E90052C2E6B8
:100D10001D60C0E62E4F064607F1050A052065E76F
:100D20001A0748BF013069E70793104606925946F3
:100D3000C8470028DDE9062304DA15B0BDE8F08FC6
:100D4000202243461946002903F1FF33ECDC4544D9
:100D50006D1A98462EB159463046C8470028ECDB3C
:100D600001359DF84230DA0601D41B0705D55946F6
:100D70003020C8470028E0DB0135059B33B19DF8E2
:100D800043005946C8470028D7DB0135049E2E444E
:100D900005E059463020C8470028CEDB0135731BDB
:100DA000002BF6DC53463A465946484603F0C1F953
:100DB0000028C2DB0544A844A8EB0503002B7FF7FD
:100DC0006AAE59462020C8470028B6DB0135F3E754
:100DD000254C000001F0B6BC2DE9F84305464FF064
:100DE0002003EFF3118683F31288BFF36F8F0E4B4E
:100DF0000E4F1C68DFF838804FF00C092CB986F3D1
:100E00001188BFF36F8FBDE8F883D4E90123002D6B
:100E100018BF13462BB198F8102009FB02F2B85CFA
:100E200098472468EAE700BF180200200C0200205F
:100E30007003002070B5194B1C7CBFF35B8F04F06E
:100E40001F0301229A40164B610903EB8103D04333
:100E500053E8001F01EA000543E80056002EF7D1D1
:100E6000BFF35B8F0A4213D00E4B0F4D8BB10C2397
:100E70006343EA18E85C517803F0C1F90020FFF7FA
:100E8000ABFF0C235C432A1900232B51C2E9013329
:100E900070BD83F31188BFF36F8FEFE770030020FD
:100EA00020020020FF4100000C0200202DE9F0414B
:100EB000354B07461D7C4FF02003EFF3118883F379
:100EC0001288BFF36F8F0C24304B314E6C431A19CC
:100ED000195D00294CD007CA06EB040C8CE807000A
:100EE00000221A5588F31188BFF36F8F0C236B43D0
:100EF000F218F05C002839D07B1C10D0D2F808C062
:100F0000244C254A4FF400400021ECFB0041002313
:100F10002046FFF7F5F80121381A01F0BBFB02F07B
:100F200035FD0120FFF758FFBFF35B8F1B4B6A09AC
:100F300003EB820305F01F0101228A4053E8000FF2
:100F4000104343E800010029F8D1BFF35B8F144B35
:100F50003BB10C2303FB05F03318305C597803F0E8
:100F600042F9FFF767FF02F025FD0120BDE8F0819F
:100F70000146284600F016F80028B3D007C83444CC
:100F800084E80700AEE700BF7003002000020020E5
:100F90000C0200203F420F0040420F0020020020C0
:100FA000E74100002DE9F04F384C85B04B1C0F464F
:100FB00003A90CBF4FF0FF384FF0000800F06EF8A7
:100FC0006368002B054612DB03F091FAD4E9003286
:100FD0001C1A62F1000698424FF00003934102DBB5
:100FE000013C46F10006012C76F1000302DA3C4692
:100FF000464609E0B8F1FF3F08BFB7F1FF3F03D015
:10100000A74278EB0603F2DB214B039F1B6800939A
:101010006B1E1BB203EB4303DFF8789007EB8307EB
:101020004FF400484FF0000B25B9AA46504605B0D2
:10103000BDE8F08F7868184ACC465946E0FB08C1F5
:1010400000236046FFF75CF80190B868124ACC466E
:101050005946E0FB08C100236046FFF751F8009BAA
:10106000002BBA4601DB83420BD9B6F1FF3F08BF24
:10107000B4F1FF3FDAD0019B1844844276F10003BB
:10108000D4DA013DADB20C3FCEE700BF0000002036
:101090000C0000203F420F0040420F0008B9024BF5
:1010A0000B600020704700BF084B00000149102270
:1010B0000A60704710ED00E072B6404080F311887E
:1010C000BFF36F8FBFF34F8F30BF62B6BFF36F8F29
:1010D000704700BF72B6494081F31188BFF34F8F4C
:1010E00020BF80F3118862B6704700BF40B200286D
:1010F00007DB044A4109012300F01F00834042F846
:101100002130704700E100E0054B420900F01F006C
:1011100053F82220012303FA00F01040704700BF6B
:1011200000E100E040B20028A8BF00F1604001F1FA
:101130000101B8BF064B4FEA4111ACBF00F5614059
:1011400000F00F00C9B2B4BF195480F80013704703
:1011500014ED00E030BFFFF7FDBF00BF0F4A08B538
:101160000F4B22F07F029A60BFF34F8FBFF36F8F58
:10117000D3F8882022F47002C3F88820EFF3148398
:1011800023F0040383F31488BFF36F8F02F086F813
:1011900002F036FD00F020FA02F0D2F80000000064
:1011A00000ED00E0094A0A4993680968996709490E
:1011B00058674B6843F080534B60002383F31188DA
:1011C000BFF36F8F9368986F704700BF7003002064
:1011D000F84B000000ED00E012498A684FF0300043
:1011E0001044EFF3098C80E8F01F202080F3128870
:1011F000BFF36F8F0C4F4FF000668A698A603E60C4
:10120000506F0023536780F3118804B5104600F037
:1012100029FABDE8044002F1300090E8F01F8CF399
:10122000098870477003002004ED00E01EF0040FF1
:101230000CBFEFF30880EFF30980816911F8021CFD
:101240000229FFD001B502F08EFF01BD42F8203C1B
:10125000009B42F81C3C0A49019B42F8183C029B47
:1012600042F8143C21F001014FF0807342F8043C35
:1012700042F8081C0023203A02654367704700BF0C
:10128000E13E0000094A0346906870B113F1160F61
:10129000406E05D0A0F140029A4205D8834203D2A5
:1012A000814228BF00207047002070477003002053
:1012B00008B5094B0D461446986000F0D3F9204656
:1012C00085F30988002163B681F31188BFF36F8F1E
:1012D0000022002302F004FE7003002001B572B664
:1012E0000B4A506900281EBF0021516103F0F7F935
:1012F00062B6EFF30580A0F110004FEAC000054987
:10130000014409C99847BDE8014003490847000066
:1013100070030020244900001D130000044B99684D
:101320009869884203D003494FF080520A607047A1
:101330007003002004ED00E070B5264B15469A6A54
:1013400012F0100F9A6A14BF1124102412F0080F23
:101350009A6A18BF1224920706460AD5586B9A6AF1
:10136000140634D519B19A6A22F080029A621324C5
:1013700001E06FF01500174B9A6A12F0010F9A6A9C
:1013800018BF142412F0200F9A6A18BF1524D20631
:1013900002D49B6A9B070AD50E4B5B68190506D5DC
:1013A0003146FFF76FFF10B180F309880224094B23
:1013B0009A6A920642BF5A6A22F400525A629A6AA4
:1013C00042F0FF029A6200232B70204670BD6FF03E
:1013D0001500CCE700ED00E0134B9A6A12F0007F95
:1013E0009A6A14BF1E201D2012F0807F9A6A18BFCF
:1013F0001F2012F4002F9A6A18BF212012F4802FA8
:101400009A6A18BF222012F4003F9A6A18BF23205C
:1014100012F4803F9A6A6FEA02426FEA12429A62BD
:1014200018BF2420704700BF00ED00E010B5194B35
:101430000246986A9C6A10F4805F14BF1720162039
:1014400014F4006F9C6A18BF1820A40509D5986B86
:10145000986A000404D51AB19A6A22F400429A628A
:1014600019200C4B9A6A12F4806F9A6A18BF1A20DE
:10147000D2050CD49B6A13F4005F18BF1C20054AE8
:10148000936A43F47F43936200230B7010BD1B20CB
:10149000F5E700BF00ED00E070B5454B5B688AB032
:1014A0000546C3F30803002686F31188BFF36F8F48
:1014B00002F07F40B0F17F4F11D102F00C000828FC
:1014C0000DD010074CBF0D4601260022033B8DF8BE
:1014D0000720032B05D8DFE803F01E5D615A35466F
:1014E000F3E700249DF807309BB92022294602A883
:1014F00002F059FE099B002E54D0C3F3080222B912
:101500006FEA53236FEA4323099302A9204602F0AE
:1015100028FE0AB070BD264BDA6A9107E1D4DA6A78
:10152000002ADEDBDA6A5200DBD55A69A96942F487
:1015300080725A61BFF34F8FBFF36F8F5A6931F8D2
:10154000021C22F480725A61BFF34F8FBFF36F8F7A
:101550004DF6027291420AD09A6AD2B24AB10DF1A6
:10156000070201212846FFF7E7FE0446BAE72C6888
:10157000B8E79A6A12F47F4F05D00DF107010120F8
:10158000FFF754FFF1E79B6AB3F5803FA9D3FFF75C
:1015900023FFEAE70DF107020021E3E70DF1070160
:1015A0000020EDE723F4FF7323F00103ACE700BF55
:1015B00000ED00E0024A536943F0100353617047A5
:1015C00000ED00E0EFF30880EFF3098101B572460A
:1015D000FFF762FF01BD00BF044800232021C218AD
:1015E0000133302B82F80013F9D1704700E100E09D
:1015F000FFF7F0FB202080F3118808484FF40461C6
:10160000401880F30988EFF314800221084380F327
:101610001488BFF36F8FFFF7A1FD0000C007002003
:10162000084B9B6883420BD1EFF3058343B1064B14
:101630005A6842F080525A605A6A22F400425A6252
:1016400002F07EBA7003002000ED00E0024B034A76
:101650000348012100F070B80000042000000020C1
:10166000084B0000426E054B403A1A60044A402184
:10167000C3E901121846012100F068B824020020D5
:1016800000000B15F0B5204E00258D4239DA446874
:1016900074B353B104F1FF3C14EA0C0F2FD11F2C8B
:1016A0002DD907681CEA070F29D1202C0768D0F82C
:1016B00008C05FFA82FE1ED9B4F1004F1DD8013C6C
:1016C000B4FA84F4C4F11F046400BEF1070F4CEABD
:1016D000040C14D827F01F04144344F01004C6F877
:1016E0009820C6F89C404CF00104C6F8A040013296
:1016F00001350C30C9E70824E7E73E24E5E76FF041
:1017000015021046F0BD00BF00ED00E0044B0522BD
:10171000C3F89420BFF34F8FBFF36F8F704700BFA4
:1017200000ED00E0BFF35F8F024B0022C3F894206E
:10173000704700BF00ED00E010B5034C0123227894
:10174000FFF7A0FF207010BDA403002008B5094AD0
:1017500000231278FFF796FF10F1160F02D0064A09
:10176000072800DD08BDC2F89800C2F8A03001309B
:10177000F6E700BFA403002000ED00E0144908686C
:10178000082810B521D8FFF7CDFF124C4968002278
:10179000904201F10C0105D10F4B1870FFF7B6FF15
:1017A000002010BDC4F8982051F80C3C23F01F0312
:1017B000134343F01003C4F89C3051F8043C43F049
:1017C0000103C4F8A0300132E2E74FF0FF30E8E750
:1017D000144B000000ED00E0A4030020014B186052
:1017E000704700BF100000200E4A0123C2F84035A8
:1017F0004FF080424FF08051C2F87835D1F8300177
:10180000082808D1D1F83411052904D80648415CCC
:1018100009B1C2F838364FF080430122C3F8802561
:101820000020704700E00140414C000020B1034B14
:10183000800143F001031847704700BF004B0000D0
:10184000084B70B5C31A0D4607499B10044659430F
:101850000648402202F0F5FC2B4601462046BDE832
:101860007040184744020020B76DDBB6D448000032
:1018700073B50C4C0C4A4023041B00930D460B46D9
:101880000A49A41061430646094802F007FD011EFB
:1018900005DA30462B4602B0BDE87040184702B06A
:1018A00070BD00BF4402002009430000B76DDBB6E5
:1018B000D4480000002270B5012104461046FFF70D
:1018C00031FC0F4801F0C8F80E4B984215D102F0D8
:1018D0001FFE26690C49304602F05CFB00280BDB3A
:1018E000012535642469084904F11C0002F052FB0B
:1018F000002801DBE564002070BD6FF00400FBE709
:10190000411900000000AD0B344B000070B50146DA
:101910000C2309484B43C418D4E90E564033002227
:101920001844A26302F07AFC2DB132462B460348DC
:10193000BDE87040184770BD44020020D448000044
:1019400010B1012804D07047034B1B6C5B0701D119
:10195000FFF7DCBF704700BF4402002008B54FF01E
:101960002003EFF3118183F31288BFF36F8F124AC4
:10197000136843F002001060DA0708D481F311887D
:10198000BFF36F8F0120BDE8084002F0CEBD4FF0DD
:101990008043D3F80C24D3F80C34DB07EED507488A
:1019A00002F03CFC81F31188BFF36F8F0020BDE88B
:1019B0000840FFF7ABBF00BF940200208402002064
:1019C0001FB500220123CDE90223094ACDF800D03A
:1019D0006B46CDF804D002F090FC002805DB4FF4F4
:1019E00080420023684601F0E7FD05B05DF804FB86
:1019F0002743000010B54FF02003EFF3118483F369
:101A00001288BFF36F8F074A136823F00201DB07C8
:101A1000116002D4012002F0C4FD84F31188BFF3E9
:101A20006F8F10BD940200202DE9F0413849BFF3BB
:101A30005B8F0746012251E8003F41E80020002863
:101A4000F9D1BFF35B8F33B9324933484B60CB6078
:101A50008A6002F0B2FA7B1E012B2BD8012F07D12E
:101A60004FF08043D3F81C3403F00303012B21D043
:101A700002F02FFE0546F8B9284B1B78E3B14FF072
:101A800080430222C3F808230646DFF894804FF013
:101A90008044D4F81824D4F81834D20316D503F0AF
:101AA0000303012B01D0012F10D15DB386F3118800
:101AB000BFF36F8FBDE8F0814FF02003EFF3118685
:101AC00083F31288BFF36F8F0125DEE7ADB1304697
:101AD000FFF700FBD4F81835002BDAD1D4F8042135
:101AE000002AD6D0C4F80431D4F804310123C4F854
:101AF0001835C8F88031A360CBE70021212001F020
:101B0000FFFFE7E74FF080430222C3F80423D1E749
:101B1000400200203002002060020020B7070020B1
:101B200000E100E008B5074802F09DFD38B1064825
:101B3000FFF754FE0448FEF779FC002008BD6FF063
:101B40001200FBE7104900004D1B00000A2838B5C1
:101B5000074D044604D1AB680D215B6828469847C1
:101B6000AB6803485B68E1B29847204638BD00BFC8
:101B70001049000030B54068057B01F01F04B2F544
:101B8000001F85B044EA451405D1204601F0E2F972
:101B9000002005B030BD0025B2F5800FCDE902551B
:101BA00014D1B3F1007F0CBF042305238DF8083056
:101BB0000023194602AA204601F014F8234B98424C
:101BC0003DD10121204601F07FF9E1E7B3F1C06F7B
:101BD00027D0B3F1007F14BF012302238DF8083012
:101BE000836823FA01F111F00101E1D1B2F1A07F84
:101BF000DED104F01F03620903F5E07313D0012A5C
:101C000020D1134A52F82330DB07D1D40DF1070558
:101C10002946204601F008F90E4B984206D003955C
:101C2000C6E70323DAE74FF0A042EBE7284601F0CE
:101C300045F9064B9842F2D06FF00B00A9E76FF020
:101C40001500A6E751F82330FFDE00BF0000AD0B02
:101C5000000300500400AD0B10B501F01FF904465D
:101C600068B901F0F3F8084B98420AD107482146B9
:101C700001F0D4F8224605210620FFF753FA002090
:101C800010BD6FF00400FBE70000AD0B911C0000DD
:101C9000420970B5034602D0012A17D070BD0D4E1F
:101CA000326951680029F9D003F01F0301250C683F
:101CB0009D400029F2D08A682A4002D04B68304605
:101CC00098472CB1236821461C46F2E7024EE7E70D
:101CD0002346F8E7FC480000E84800002DE9FF41F2
:101CE00047683B7B01F01F0545EA43150E46284631
:101CF0000DF10301144601F097F814F4403F8046BB
:101D00000BD1284601F048F93D4B984503D19DF889
:101D1000030001F0CDF800200CE00023194602AAD0
:101D20002846CDE9023300F05DFF354B984204D0E0
:101D30006FF0150004B0BDE8F081804503D19DF837
:101D4000030001F0B5F8A3034BD540F2063323405E
:101D5000B3F5837F19D00CD8062B17D004D8ABB1BC
:101D6000022BE5D1042311E0B3F5807FE0D10123FC
:101D70000CE040F20222934227D0B3F5407F26D0F8
:101D8000B3F5007FD4D1022300E007238DF804309F
:101D900084F48033C3F30043E0068DF8053054BF6C
:101DA000C4F34013032321038DF8063011D57A685C
:101DB0000123B340C2F80835002201A9284600F0EB
:101DC000BDFF0F4B9842A6D0B2E70523DEE7032301
:101DD000DCE7620341BF01237A68B340C2F80C35E7
:101DE000EAE7E3064FF0000354BFC4F340140324B2
:101DF0001A4601A928468DF8044000F0F3FEE0E7FA
:101E00000000AD0B036803F01F025B09026004D001
:101E1000012B034818BF002070474FF0A0407047C7
:101E2000000300502DE9F04FDFF8849185B015468E
:101E3000824600EB81014FF00108514503D100209B
:101E400005B0BDE8F08FDAF8003003F07F04C3F38B
:101E500043277F2C4FEA134308BF4FF0FF34222B58
:101E600000F2A380DFE803F012232B442E3544A1B7
:101E7000A1A1A14773A1A1A1A1A1A1A1A1A1768125
:101E80008487A1A1A18A909396999C00C5F80C45DE
:101E9000601C1BD003A80394FFF7B4FF039B08FA50
:101EA00003F3C0F8083501264FF0010B2CE0C5F80C
:101EB0001445631C0AD000264FF0000B24E0C5F83F
:101EC0000845E5E7621CC5F808456CD10AF1040A2B
:101ED000B3E7631CC5F80C45F8D0012603A80394AA
:101EE000FFF790FF039B08FA03F3C0F80C35DBE71C
:101EF000C5F81045DDE7C5F80845002FD9D1671CA6
:101F0000E4D00026B3460627DAF80030019303F444
:101F10000052002A03A81CBF01264FF0000B0394B7
:101F2000FFF770FF039A019B00EB8200C3F3C1141B
:101F3000D0F800273B0243EA840343EA0B0302EA9A
:101F40000902134343EA4603C0F80037BEE7C5F869
:101F50000C45D2E7C5F86045661CDAF80030B5D00C
:101F6000C3F38033002BB8D094E7C5F86445F3E79A
:101F7000C5F86845F0E7C5F86C45EDE7C5F82445B8
:101F8000621CA3D0012697E7C5F8284580E7C5F86D
:101F90003045F5E7C5F83445F2E7C5F83845EFE7D1
:101FA000C5F83C45ECE7002698E76FF0850047E769
:101FB000F0F8FCFFF0B54B79012B26D0032B21D193
:101FC00010258B79032B1DD1CE790EB1012E19D19D
:101FD0000A7912B1022A15D10E220B684468B3F5B2
:101FE000164F276867D02DD8B3F5165F66D016D880
:101FF000B3F5966F64D00AD8B3F5967F63D0B3F586
:10200000167F63D06FF0850054E00025D9E7B3F563
:10201000166F5ED0B3F5965FF4D1384B3CE0B3F564
:10202000E14F59D007D8B3F5615F57D0B3F5964F5C
:10203000E8D1334B30E047F61224A342E2D14FF40B
:10204000000329E0B3F5613F4AD013D8B3F5963FBA
:1020500049D009D84DF6C024A34246D0B3F5614F0C
:10206000D0D14FF46B0317E0B3F5E13FCAD14FF085
:10207000EB7311E0B3F5612F3AD008D8214CA3429D
:1020800039D0B3F5E12FBDD14FF0E86304E01E4C29
:10209000A342B7D14FF080530469C7F82435436891
:1020A00035431B682A43C3F86C2503C9231D83E805
:1020B00003000020F0BD4FF41D03EDE7134BEBE7E9
:1020C0004FF49E23E8E74FF4A033E5E74FF41C33C9
:1020D000E2E74FF41D23DFE70D4BDDE70D4BDBE7B8
:1020E0004FF06C73D8E70C4BD6E74FF46503D3E79A
:1020F0004FF07063D0E74FF08063CDE700B013007E
:1021000000A04E0090D0030040420F000050270076
:1021100000C0750000F03A0000903A012DE9F74345
:102120008046002201210220FEF7FCFF0220FEF77C
:10213000DDFFD8F80470D8F810603C680021C4F8BE
:102140000015C6F80080D7F80C9001AA484602F0A6
:1021500042F9051E4CDB019BD9F80020197918685B
:10216000FFF760FE051E43DB311D4046FFF722FFEF
:10217000054600283CD17B68990712D506F1180066
:1021800001F012F81E4B984236D1307E04F10C0259
:1021900004F5907102F0B2F9337E0120984000F00E
:1021A000F3FB0823C4F800353B7A53B9C4F8103167
:1021B000D4F810317369C4F834350123C4F83835C4
:1021C00023607B689A075CBF4FF48073C4F80433C4
:1021D0007B68DB0644BF4FF48003C4F804333369E3
:1021E000C4F844350023C4F848350123A360E360F4
:1021F000284603B0BDE8F0836FF00405F8E700BFA0
:102200000000AD0BF8B5044607690D4602F061FA0F
:10221000B0B92E4B1B789BB16426606802F011F9AF
:1022200000BB012002F068F9013EF6D10021212017
:1022300001F066FCF0E786F31188BFF36F8FF5E7D6
:102240004FF02003EFF3118683F31288BFF36F8FF3
:102250006068314602F0F5F890B986F31188BFF353
:102260006F8FEDE74FF02003EFF3118683F31288B1
:10227000BFF36F8F6068314602F0E3F80028DAD0D0
:102280003B691D70626838691368C3F84405012012
:10229000C3F848050020C3F82001D3F82051C3F843
:1022A00058015268D3F85801D20608D562681268FE
:1022B0000820C2F800054FF48002C3F8042301226D
:1022C0009A6081F31188BFF36F8FF8BDB7070020C4
:1022D00070B5012383400E4ABFF35B8FDC4352E8A5
:1022E000001F01EA040542E80056002EF7D1BFF3B3
:1022F0005B8F4FF4803282400648C0F80823BFF35A
:102300005F8FBFF36F8F0B4214BF0120002070BDA1
:10231000B40200200010014070B40E49D1E900342D
:10232000D01AC31844F1000422F07F46C1E90034FA
:10233000A6F50013B3F5400F09D2074B1B681A0A24
:102340001B069C19054B42F10005C3E9004570BC12
:1023500001F02CBDD0000020B8020020D8000020E1
:1023600011B3BFF35B8F0123104A834052E800CFC3
:102370004CEA030C42E800C10029F7D1BFF35B8FA0
:102380000B4A4FF480338340C2F80433094BBFF348
:102390005B8F1B68BFF35B8FC340DB0742BF064BFD
:1023A0004FF40032C3F80021704700BFB402002090
:1023B00000100140B002002000E100E00D4B186861
:1023C000010A0006BFF35F8F0B4BD3F804351818D2
:1023D00041F10001B3F5801F0AD2084BD3E9002375
:1023E000904271EB030303D210F1807041F10001C0
:1023F000704700BFB802002000100140D800002044
:102400002DE9F04F85B016461F469DF840A00446C2
:10241000FFF75EFF0190FFF7D1FFB04271EB0703BA
:1024200054D23E4B301A67EB0101984271F1000122
:102430004FD23B4B03EB0413D3E902239F4208BF67
:1024400096425ED037494FF4803804F1500508FABF
:1024500004F8AD00C1F848832046ADB202F03BF865
:1024600026F07F4B05F1804504F5A87305F5883506
:10247000DC464FF003090293029A2CF07F4341F8A7
:102480002230C1F84483D1F80435274A6FF00200A6
:10249000C01A604420F07F40904232D9286868B169
:1024A000D1F804350393A3EB0B0020F07F40B0F587
:1024B000000F26D9204602F00EF8039BBAF1000F58
:1024C00007D109EB030C09F10109D5E7BAF1000FB7
:1024D00009D06FF0150520460199FFF741FF284606
:1024E00005B0BDE8F08F0123104ABFF35B8FA34016
:1024F00052E8000F184342E800010029F8D1BFF369
:102500005B8F07490E98230101EB0412C8500F9B03
:102510005360C2E902670025DDE700BF01008000CB
:10252000C000002000100140FDFF7F00B00200202D
:102530007FB51C4C1C4BC4F80833C4F848331B4B04
:1025400000254FF0FF304FF0FF31C4F80855C3E9C4
:1025500002014FF48033C4F80433154B02264FF4C4
:1025600000320121C4F804631120C3F880212A46F7
:10257000FEF7D8FD1120FEF7B9FD0E4A0123A36036
:10258000236013600C4B0D4A0093CDE901550023E5
:102590002846FFF735FF3046FFF746FA284604B0D5
:1025A00070BD00BF0010014003000F00C0000020FC
:1025B00000E100E0B402002019230000FFFF7F00CB
:1025C0002DE9F7432F4CD4F8043399070BD5D4F8F1
:1025D000043143B12C4A0023C4F80431D4F8043147
:1025E000136801331360D4F80433DA032AD5BFF338
:1025F0005B8F264B53E8002F22F0010143E80010C7
:102600000028F7D1BFF35B8FD30702D4D4F8403151
:10261000C3B10025C4F84051D4F84031FFF7CEFED5
:102620004FF02003EFF3118283F31288BFF36F8F13
:10263000174BD3E90267B042B94106D282F3118841
:10264000BFF36F8F03B0BDE8F0834FF0FF384FF05A
:10265000FF39C3E90289D3E900101D604FF48033CC
:10266000C4F84833C4F84051D4F8403182F311889B
:10267000BFF36F8F0029E5D0009032463B462846D5
:102680008847DFE700100140B8020020B0020020B8
:10269000C00000201FB5431C23D0012823DD134AAE
:1026A000134B9042D4BF04461C46FFF787FE114BE4
:1026B0000F49D3E90023801AB0F5000F28BF00248A
:1026C00004448C4228BF0C46A2180B4900914FF0DD
:1026D0000000CDE9010043F10003FFF791FE04B0D3
:1026E00010BD034CE1E70124DFE700BFFEFF7F00E0
:1026F000FFFF7F00D00000201923000008B5FFF77E
:102700005DFE024B1B68C01A08BD00BFD000002050
:102710004FF08053D3F83021082A06D1D3F8343152
:10272000052B02D8024AD05C70470020704700BFDA
:10273000A84C0000024AD2F80034002BFBD07047AE
:1027400000E0014010B54FF08053D3F83021082A43
:102750004ED14FF080420021C2F80C11C2F8101186
:10276000C2F8381502F54042D3F80414C2F8201517
:10277000D3F80814C2F82415D3F80C14C2F828159D
:10278000D3F81014C2F82C15D3F81414C2F830156D
:10279000D3F81814C2F83415D3F81C14C2F8401535
:1027A000D3F82014C2F84415D3F82414C2F84815FD
:1027B000D3F82814C2F84C15D3F82C14C2F85015CD
:1027C000D3F83014C2F85415D3F83414C2F8601595
:1027D000D3F83814C2F86415D3F83C14C2F868155D
:1027E000D3F84014C2F86C15D3F84434C2F87035ED
:1027F000FFF78EFF18B13A4B3A4AC3F88C26FFF721
:1028000087FF18B1384BFB22C3F81825FFF780FF6C
:1028100070B14FF080414FF08053D1F8E42ED3F8DF
:10282000583222F00F0203F00F031343C1F8E43EC5
:10283000FFF76EFF20B12D4B4FF40072C3F8402616
:102840004FF08053D3F83031082B1AD14FF080432A
:10285000D3F80024D20744BF6FF00102C3F800246C
:102860004FF08053D3F83431052B02D8204AD35C83
:102870003BB14FF01023D3F808224FF08043C3F848
:1028800058254FF01023D3F80022002A03DBD3F899
:102890000432002B22DA174901234FF01020C1F82F
:1028A00004351224FFF746FFC0F80042FFF742FF4D
:1028B000C0F80442FFF73EFF0023C1F80435FFF7DC
:1028C00039FFBFF34F8F0C490C4BCA6802F4E0622A
:1028D0001343CB60BFF34F8F00BFFDE710BD00BFB8
:1028E000005000404881030000F00040009002408A
:1028F000A24C000000E0014000ED00E00400FA05F9
:1029000030B50468CCB1BFF35B8FB4FA84F3C3F184
:102910001F03DBB201229A4024EA020250E8005F62
:10292000A54204D140E8002CBCF1000FF6D1BFF362
:102930005B8FE6D102480B7030BD0248FCE700BF58
:102940000000AD0B0200AD0B10B50368CB40DB07F8
:1029500014D401238B400268BFF35B8F43EA02016A
:1029600050E8004F944204D140E8001CBCF1000F35
:10297000F6D1BFF35B8FEED1014810BD0148FCE7F3
:102980000000AD0B0400AD0B014BC3F8040570470C
:1029900000F00140F7B5044618B1012823D003B078
:1029A000F0BD4FF080430222C3F80823C3F80401AE
:1029B000D3F804210122DA60064601238DF807309E
:1029C00042F210754FF08047D4B1012CE7D1D7F80F
:1029D0000C3403F48033AEBB83B3012001F08CFDD3
:1029E000013DF4D12AE04FF080430022C3F80803F0
:1029F000C3F80021D3F8002158600DF10706DCE789
:102A0000D7F8183403F480333EB9002BC7D0012027
:102A100001F072FD013DF3D1C1E7D7F8182402F0AF
:102A200003023260002BBAD09DF80700012803D1C1
:102A300001F062FD013DC7D1012CB0D1054B002250
:102A40005A71ACE7D7F80C2402F001023270002B67
:102A5000EAD1F3E7BC020020044B1A7922B9012223
:102A600018609A800248704702487047BC020020F4
:102A70000000AD0B0C00AD0B10B54FF08043D3F848
:102A800000216AB10022C3F80021D3F800210122FD
:102A9000C3F80823114B587910B95A711B6898472D
:102AA0004FF08043D3F8042172B10022C3F804210F
:102AB000D3F80421D3F81824D3F81824920704D1AA
:102AC0000122C3F818259A6010BD0222C3F808231A
:102AD000024BBDE810401B6801201847BC020020D3
:102AE000036803F01F025B09026004D0012B034856
:102AF00018BF002070474FF0A040704700030050FF
:102B000070B500F108030C4C34F81330DA050546B3
:102B10000E4607D5C3F3432304EBC30254F8333006
:102B200052689847A3682BB1E26831462846BDE851
:102B30007040184770BD00BF3000002010B4124A2A
:102B4000083032F81030D9051BD5C3F3432123F4E4
:102B5000F85322F8103002F10E04002034F8023F3E
:102B600013F4807F03D0C3F34323994209D001308B
:102B70003028F3D1002342F83130044810BCFFF76D
:102B8000E3BE10BC704700BF30000020A40000204E
:102B9000F0B50146104A114C00200125064602F10D
:102BA0004043A3F5C2439B0805FA03F3194204D03E
:102BB000176817B11660176818430432A242EED1A5
:102BC000074BD3F87C2132B10022C3F87C21D3F823
:102BD0007C3140F00040F0BD0061004020610040C9
:102BE000006000402DE9FF411D46044616460B4695
:102BF000E9B14D4F00F1080837F8182002F0220221
:102C0000222A20D00022CDE900228DF80E208DF856
:102C10000F200DF10E010DF10F0201F0C4FC37F889
:102C2000183023F0020343F0010327F8183046B3AD
:102C30003D4B96F800C0726804F1080733F817108E
:102C4000880702D5AAB139481DE021F02001C90446
:102C5000C90C23F8171062B1BCF1030FF3D87268E6
:102C60001678BCF1000F11D1314A06F5A27642F870
:102C700026C033F8172022F01C0242EA8C0223F807
:102C8000172045BB2B4804B0BDE8F081B20002F12B
:102C9000804202F5C04241EA4631D2F8100520F0E8
:102CA0000300C2F81005D2F8100520F44F3020F4CC
:102CB0004070C2F810052002D2F810E500F47C50F4
:102CC00040EA0C4040EA0E0041F0200123F81710C2
:102CD000C2F81005CDE7D5E900672046FFF72EFFC3
:102CE000002ECFD0104DD5E90023964201D19F424E
:102CF00018D011480DF10F01FFF702FE0D4B98425D
:102D0000C1D19DF80F2045F8326005EBC2030834AD
:102D10005F6035F8143043EA422343F4807325F8AA
:102D20001430AFE70022EEE7300000200400AD0BC6
:102D3000006000400000AD0BA4000020F0B5044688
:102D400085B0154609B300F10807314E36F8173043
:102D5000980701D49A0658D413F01C0F02D04B7870
:102D6000012B52D001238DF80F300023CDE9001341
:102D70004A1C8B1C20460DF10F0101F014FC36F8A3
:102D8000173043F0030326F8173015B9214805B072
:102D9000F0BD1F4E04F1080736F81700830734D53D
:102DA00095F800C06146890020F0200001F18041C3
:102DB000C00401F5C041C00C26F817000023C1F87B
:102DC00010356A78002AE1D0D1F81035AD7823F4B7
:102DD000991323F4F853C1F81035D1F810E5230204
:102DE00003F47C53120443EA0E0302F440322D052F
:102DF000134305F4801540EA4C302B4340F020008B
:102E000026F81700C1F81035C0E70348BFE700BF38
:102E1000300000200000AD0B0400AD0B014BC3E9F6
:102E200002017047300000200830054B33F81030A5
:102E30009A0643BF5B0B03480B700348704700BF03
:102E4000300000200000AD0B0400AD0B70B50F4C3E
:102E500094F87860BEB90E4D6022314604F110003E
:102E600001F0ACF9C5F87C610620D5F87C31FEF79D
:102E70003DF94FF00043C5F804330648012384F8B8
:102E80007830636770BD0448FCE700BF3000002065
:102E9000006000400000AD0B0500AD0B034B93F844
:102EA0007800003818BF0120704700BF30000020B4
:102EB00001460148FFF748BDA00000200146014837
:102EC000FFF71EBDA000002037B5204B00F108021F
:102ED000044633F812309A061DD513F002051AD1B4
:102EE0005B0B9A0002F1804000F5C24002F1804283
:102EF00002F5C04205600068D2F8100540F00100FC
:102F0000C2F8100529B1012202FA03F3104AC2F8EF
:102F1000043303B030BDC3F38203042B12D0052B5E
:102F200012D001A80194FFF7DBFD019BD0F810152A
:102F3000D94001F001010231204603B0BDE8304024
:102F400001F07ABB0321F7E70221F5E7300000200A
:102F5000006000400E4B00F1080233F81230990671
:102F600013D59A0711D45B0B01229A409B000949A3
:102F700003F1804303F5C043C1F80823D3F81025BB
:102F800022F00302C3F810257047002101F054BB62
:102F9000300000200060004073B5174D00F10806B6
:102FA000044635F81630D90724D5FFF7D3FF35F896
:102FB00016309A0606D55B0B104A03F5A273002162
:102FC00042F823102046FFF7B9FD002301A825F899
:102FD00016300194FFF784FD019B00EB8300084B42
:102FE000D0F80027134043F00203C0F8003705482B
:102FF00002B070BD0448FBE73000002000600040D4
:10300000F0F8FCFF0000AD0B0400AD0B2DE9F04F14
:10301000624BD3F80403C0B287B040F00040FFF722
:10302000B7FD051E80F29C804FF0A043DFF8708151
:10303000D3F820250492C3F82025D8F8203505932D
:10304000C8F820354FF000090DF1100A4FEA491376
:1030500000934FF0010B49E0009B524A94FAA4F40C
:10306000B4FA84F41C44E00804F10803039432F831
:1030700013701AF8003004F007020BFA02F223EA88
:1030800002030AF8003003A8FFF72AFD039B03F5AB
:10309000E073B90850F82330C7F382064A07374671
:1030A000C3F301432CD520463946DEB2FFF728FD95
:1030B00003A80394FFF714FD039B03F5E07350F896
:1030C0002330C3F301439E4207D10021204601F083
:1030D000B3FA3146204601F0AFFA03A80394FFF794
:1030E000FFFC039B0BFA03F3C0F820355AF8294084
:1030F000002CB1D1B9F1000F1DD14FF00109A5E7A6
:10310000022B0CD10321204601F096FA06F00503AC
:10311000012BE2D139462046FFF7F2FCDDE7022120
:103120002046019301F088FA032EF3D0019B032B74
:10313000D3D1022EEDE74FF00040FFF729FD4FF00D
:10314000A042D2F820350493C2F82035D8F82025C3
:1031500005921343C8F820257FF474AF25F000458D
:10316000012415B907B0BDE8F08F95FAA5F3B3FABD
:1031700083F304FA03F29B0003F1804303F5C04399
:1031800025EA0205D3F81005D3F81015C0F3052081
:10319000C1F30141FFF7B4FCE3E700BF006000406A
:1031A000000300503000002001460148FFF7A8BB93
:1031B000AC00002010B5144C144A154903232361B8
:1031C0006361144BA261E3614FF4806323620023C7
:1031D000A3626362E36222660F4A6266E01D102208
:1031E000A2662367E366636700F0CCFFBFF35F8FDF
:1031F0000A49204600F0C6FFBFF35F8F2023A3716A
:10320000BFF35F8F10BD00BFC4020020CE4C000092
:10321000D74C0000B7030020A7030020DB4C0000C0
:10322000104B70B553F82040013053F82060A6428F
:1032300000D870BDD4E9003595B153B12846984700
:1032400038B10028B8BF4042EB68FF28A8BFFF2074
:103250001870EA68537843F0010353700834E6E7C6
:103260009847FBE7FC4B000008B50A4B01220320FE
:103270001A70FFF7D5FF00F01DFE0420FFF7D0FF06
:1032800000F0FEF8FDF7A6F8034A137B23F00103D4
:10329000137308BDB70700206001002008B503487C
:1032A000034A0021121A01F010FA08BDC0000020E4
:1032B000BC07002070B5002386B00122CDE90423AD
:1032C000194E1A4D01930F22CDE9023218491423E9
:1032D00003FB005506EBC01604464FF4C070154BB7
:1032E00000954FF4A07200FB0411304600F096F8F0
:1032F000737B114AEE6023F0040373734FF404638D
:1033000004FB033313446B600C4B2C74BFF35B8FD3
:1033100053E8001F013143E80012002AF8D1BFF33F
:103320005B8F06B070BD00BFE0000020700300207E
:103330000010002039350000C00700206C03002079
:1033400080B50020A6B0FFF76BFF2D4B83F30888F4
:103350002C4D2D4E6B692D4F43F400736B6100248F
:10336000E02385F82230EC772C766C76AC7685F805
:1033700020406B6A43F4E0236B6285F82340FEF73C
:1033800019F9FDF793FE4FF0FF33AB62EB62FEF7E6
:10339000F5F9FEF75BF940F20113ADF8243006AB06
:1033A000B360CDE91F44229401F05CF90120FFF7DE
:1033B00037FF0220164DFFF733FF00F017FB154BC8
:1033C000B5610593012314490094CDE903434FF4FB
:1033D00080623B46CDE90144284600F01FF86A7B35
:1033E000064622F0040228466A7301F0B9F9204625
:1033F000FFF760FF3A4631462846FDF759FF00BF08
:103400000010002000ED00E0700300206932000091
:1034100060010020E24C0000801100202DE9FF41F6
:103420000E9E0673042646730D9E867300F15805A2
:103430000F46D61DC0E916550C9A002526F0070642
:103440004037C0E90655C0E919768560C573C56681
:1034500006F1400802920B9A019288440A9A00925F
:1034600042460446FDF7F2FE044B65659B6803B1D6
:103470001B6F2367404604B0BDE8F0817003002055
:103480002DE9F043294C2A4D87B02646AE4204F17F
:103490002C040FD300F07AFA244CDFF898904FF404
:1034A000004640F2E737AC4220D307B0BDE8F04316
:1034B00000F080BA54F8043C059354F80C3C049393
:1034C00054F8103C039354F8143C029354F8183CFD
:1034D000019354F81C3C009354E9092354E90B016F
:1034E000FFF79CFF54F82C3C5E65CEE7636A5A1CDC
:1034F0000DD023EAE37300213846C3FB060151EAED
:10350000C333D4F8008004D1404600F0EFF92C34E6
:10351000C9E74FF47A720023FCF7F2FD02460B462E
:1035200008F11800494600F0CBFBF0E7A44A000080
:10353000A44A0000C547000008B50B4C0B4D4FF0E6
:103540002002EFF3118382F31288BFF36F8F01F033
:1035500085F92B78606113B9FDF7AEFDEFE7FDF754
:10356000A5FC0028EBD1F7E770030020B707002087
:1035700038B504464FF02003EFF3118583F312882A
:10358000BFF36F8F01F022F948B10022826701F08A
:10359000E7F829460748BDE8384000F095B9D4E976
:1035A00002329A4218BF0133A36085F31188BFF33A
:1035B0006F8F38BDB807002013B54FF02004EFF32C
:1035C000118184F31288BFF36F8F846844B1013C8A
:1035D000846081F31188BFF36F8F002002B010BDAB
:1035E00052EA030406D181F31188BFF36F8F6FF0A5
:1035F0000F00F3E7CDE900230246024800F046F948
:10360000ECE700BFB8070020C3897F2B12D80A4B14
:103610001B6863B1094B90F90E201B689A4209DBC5
:10362000437BDB0606D1064BC31A18BF012303F008
:10363000010070470023FAE79C0300209803002054
:10364000E0000020044BC01A044BC0105843044B48
:1036500001221A54704700BFE0010020ABAAAAAAB9
:10366000B807002070B50E4B0E4C1E7C06EB4603CF
:1036700004EBC3040546204601F0DAF80A4B0022A9
:1036800028469A55FFF7C0FF48B1084B08491A6809
:10369000013A2046D317BDE8704000F011BB70BD61
:1036A00070030020E0010020B80700209C030020E8
:1036B0004536000038B50D4D2B4653F81C4F9C4243
:1036C00000D004B9EC68AB6838B95A7BD20604D193
:1036D000A26912B9DA897F2A05D89C4202D0204615
:1036E000FFF7C0FF2346AB6138BD00BF7003002069
:1036F00070B590F90D20437B002A014604DA03F0EF
:103700007F03437300F0F2FF4B7B154A63F07F03A6
:1037100010464B7350F81C3F146A834208BF0023C5
:1037200023B9C1E90004216011620CE091F90E5047
:1037300093F90E60B5420ED0AE420CDD5868C1E977
:103740000030016059609068431A5842BDE87040EB
:103750005841FFF7AFBF9C42E3D01B68E0E700BFD2
:103760007003002070B490F90D30427B002B29DBF0
:10377000D30627D183692BBB134962F07F024273C2
:103780000A4652F81C4F944218BF23460C6A23B9CC
:10379000C0E90024206008620CE090F90E5093F913
:1037A0000E60B5420AD0AE4208DD5A68C0E9003268
:1037B0001060586070BC0020FFF77CBFA342E7D0C8
:1037C0001B68E4E770BC70477003002008B590F9EF
:1037D0000D20437B002A014604DA03F07F03437384
:1037E00000F084FF044B9868431A58425841BDE8E2
:1037F0000840FFF75FBF00BF7003002070B515469B
:103800001C46064600F084FFB4F1FF3F08BFB5F147
:10381000FF3F08D02A46234606F118000249BDE8BA
:10382000704000F04DBA70BDC547000038B54FF08C
:103830002003EFF3118583F31288BFF36F8F104BD2
:10384000104A9C681068A04206D1FFF70BFF85F371
:103850001188BFF36F8F38BD00211B7C11600A4AAD
:10386000D35C002BF3D02046FFF7CEFE0028EED02D
:10387000637BDB0602D12046FFF73AFF2046E4E7F0
:103880007003002094030020B807002070B50C4896
:103890000C4D86682E600C461146DDE904234FF07E
:1038A0002006EFF3118586F31288BFF36F8F8068CF
:1038B000FFF7A4FF2046BDE87040FDF773BC00BFD2
:1038C000700300209403002049B9EFF3058030B95C
:1038D000054B9A699B689A4201D0FDF763BC81F35E
:1038E0001188BFF36F8F70477003002010B54FF041
:1038F0002002EFF3118482F31288BFF36F8F427BB3
:10390000510704D484F31188BFF36F8F10BD22F0E8
:1039100004024273FFF726FF21460248BDE810402B
:10392000FFF7D2BFB907002070B50446183000F089
:103930007FFF4FF02003EFF3118683F31288BFF36C
:103940006F8F94F90D20637B002A05DA03F07F0363
:103950006373204600F0CAFE0B4D637BA86843F0FA
:1039600010036373031B58425841FFF7A3FE86F30D
:103970001188BFF36F8FAB68A34203D1BDE87040DD
:1039800000F04CBF70BD00BF700300204FF020035B
:10399000EFF3118183F31288BFF36F8F044B9A68A2
:1039A000D37B013BD37381F31188BFF36F8F7047D3
:1039B0007003002010B54FF02003EFF3118483F360
:1039C0001288BFF36F8F084B9A68D37B0133D37390
:1039D0000020FFF76FFE84F31188BFF36F8FBDE8FF
:1039E000104000F01BBF00BF70030020024B03F12A
:1039F0001C02C3E90722704770030020F8B54FF09E
:103A00002003EFF3118583F31288BFF36F8F1949F9
:103A10008868437B03F07F03437300F067FE8B6885
:103A20005A7B084662F07F025A7350F81C2F0C6ACA
:103A3000824208BF002222B9C3E9000423600B625E
:103A40000CE093F90E6092F90E70BE420ED0B742B0
:103A50000CDD5168C3E900210B6053600120FFF7C2
:103A600029FE2846BDE8F840FDF79CBBA242E3D002
:103A70001268E0E77003002050EA01032DE9F041ED
:103A800005460E4603D1FFF7B9FF00202CE0831C4A
:103A900071F1FF332ADB00F0F1FE2C184FF0200308
:103AA000EFF3118883F31288BFF36F8F114F124B1E
:103AB000B8681860FFF78AFEB86810492A4633468E
:103AC000183000F0FDF8BA68537B43F010035373CD
:103AD0004046FDF767FB00F0D1FE201A63EB0303BD
:103AE000012873F10003D0DBBDE8F0816FF0010421
:103AF000241AD3E77003002094030020C547000078
:103B0000B1F1FF3F08BFB0F1FF3F08B506D1084B48
:103B10009868FFF709FF4FF0FF3008BDFFF7ACFFD3
:103B20004FF47A7380FB0303C00B40EA4340F4E791
:103B300070030020014B9868704700BF700300209D
:103B40002DE9F04104464FF02003EFF3118683F393
:103B50001288BFF36F8F037BD9070BD586F31188CB
:103B6000BFF36F8F404080F311884FF0040002DFF5
:103B7000BDE8F081437B1A0704D586F31188BFF3B3
:103B80006F8FF5E723F0200242F00801D20920D11F
:103B90004173A36813B1204600F0B0FD04F1180092
:103BA00000F046FE04F158074FF00008A56DBD4235
:103BB00000D0B5B90120FFF77DFD104B9B68A342F3
:103BC000DBD1EFF30583002BD7D13046FDF7EAFABE
:103BD000D3E703F05F0343F00803437300F086FD6F
:103BE000D7E7284600F08AFD05F1180000F020FE16
:103BF000C5F878802846FFF7B5FDD7E770030020A9
:103C000008B50648064A0749121A00F060FDBDE8EB
:103C10000840054A0549064800F059BD000000204B
:103C2000C00000202C4D0000000000002C4D0000C2
:103C300000000020034B1B680BB9FEF75FBD00209E
:103C4000704700BFA003002010B50E4B1C689C42BB
:103C500004D1FFF7EFFF6FF0004010BDFFF7EAFF60
:103C6000002CF8D0D4E904321B1A62EBE072B3F1F5
:103C7000004F72F10001EEDA002AACBF18460020B6
:103C8000EBE700BFB000002030B570B10B4B5B68B4
:103C900098420AD0036843B1D3E90421D0E904452E
:103CA000121941EB0501C3E90421D0E90032136088
:103CB0005A600023C0E9003330BD00BFB0000020CF
:103CC000B3F1FF3F08BFB2F1FF3FF8B504461D4610
:103CD00016465CD081604FF02003EFF3118783F329
:103CE0001288BFF36F8F013275F1FF3324DA2D494B
:103CF000D1E900206FF001039B1A4FF0FF3262EB15
:103D000000009E1B60EB0500012E70F1000301DA3C
:103D100001260020C4E90460234ED6F800C075686F
:103D2000B44508BF4FF0000CBCF1000F0DD1C4E941
:103D300000652C6074601CE0FFF77CFF013645F1E4
:103D40000005361845EBE070E4E7DCE90420D4E92F
:103D50000431934271EB000E1ADAD21ADCF8043007
:103D600060EB0100CCE90420C4E900C31C60CCF87E
:103D700004403368B34206D09C4204D1FFF764FF8D
:103D80000021FEF787FC87F31188BFF36F8FF8BD22
:103D90009B1A61EB0001AC45C4E90431C7D0DCF8E3
:103DA00000C0C1E7F8010020B00000202DE9F84F65
:103DB0004FF02003EFF3118C83F31288BFF36F8F62
:103DC000DFF8B0A0DFF8B0902C4FC9F80000DAF8A7
:103DD00000000024504508BF00200025D7E900213D
:103DE000D9F80030E04680B3D0E9046C4FEAE37EB6
:103DF000B3427EEB0C0B05DAF61A6CEB0E04C0E94D
:103E0000046422E0B21841EBE671C0E90445C7E959
:103E10000021FFF739FF88F31188BFF36F8F8368A4
:103E200098474FF02003EFF3118883F31288BFF314
:103E30006F8FD9F80030DAF800009B1B5045C4465C
:103E4000C9F80030CAD1D7E900219A1841EBE373D1
:103E50000024C7E90023C9F80040FFF7F5FE21461A
:103E6000FEF718FC88F31188BFF36F8FBDE8F84F99
:103E7000FFF7DCBCB0000020A0030020F801002008
:103E800010B54FF02003EFF3118483F31288BFF3D2
:103E90006F8FFFF7CFFE064A0346D2E900011818DC
:103EA00041EBE37184F31188BFF36F8F10BD00BF46
:103EB000F8010020014800F006B800BFEA4C0000FD
:103EC0007047002070470FB407B504A951F8040BE0
:103ED0000191FCF7B1FA03B05DF804EB04B0704750
:103EE000044608B5084611461A46A047FFF722FEC9
:103EF000FDF796FB038B13F0070305D10368002B36
:103F00000CBF002003207047022B05D1408BB0FA74
:103F100080F0400980007047012B05D10368002B19
:103F20000CBF0020052070470020704710B50C46DC
:103F300000B111B96FF0150010BD081D00F095F823
:103F40000028F9D1A368032BF6D9F3E72DE9F04156
:103F50000D4607461946281D90461E4600F096F865
:103F6000044638B13346424629463846A446BDE8A1
:103F7000F0416047BDE8F08110B44FF02004EFF34A
:103F8000118284F31288BFF36F8F416110BC01214D
:103F9000FCF760BA38B50C46054658B151B10B680C
:103FA00043B14B6833B11C22002100F007F92C61AA
:103FB000002038BD6FF01500FBE770B505460E46D2
:103FC000FFF7B4FF041E15DB4FF02003EFF311825F
:103FD00083F31288BFF36F8F6B8B2C8B4FF6FF71BF
:103FE0008B4204F0070407D182F31188BFF36F8F6F
:103FF0006FF00A04204670BD022C0CD101336B8394
:1040000082F31188BFF36F8F002322463146284682
:10401000FFF79CFFEEE7062C14D8DFE804F004134A
:104020001313041A0400002333606B683BB9C5E91D
:104030000066ACB902212846FCF70CFADAE71E60EC
:104040006E60F6E782F31188BFF36F8F6FF00404A0
:10405000D0E782F31188BFF36F8F6FF08504C9E753
:1040600082F31188BFF36F8FC4E7034658B14268EB
:1040700002F00302012A03D0032A04D1026812B11C
:104080000020986070476FF01500704742688160AB
:1040900002F00302032A4FF0000203460CBF00683F
:1040A00010465A6070472DE9F84F9A46D3786F2B27
:1040B00080460F461546A3F1410B29D024D8582B32
:1040C0000CBF10260A26DDF8289032460023404611
:1040D0003946FCF715F8092AD4B21ED83034B04559
:1040E000E4B277F1000709F8014D01D3D14511D8A9
:1040F0002B789B0605D5082E15D1AB7843F0080325
:10410000AB704846BDE8F88F03F0F703702BD7E794
:104110000826D8E780460F46D7E7BBF1190F94BFB2
:1041200037345734DBE7102EEBD1AB7843F0100374
:10413000E6E72DE9F0410746884615461E46144637
:10414000B44205D30EB1601B08E02378002BFAD0EF
:1041500014F8010B4146B8470028F1DABDE8F081B8
:10416000704700F097BA0146006800F093BA00214A
:104170000120FFF7F6BF08B5FCF7ECFFBDE80840EB
:10418000FDF7CCB80139034611F8012F0AB91A70AE
:10419000704703F8012BF7E7034600201A5C02B9C9
:1041A00070470130FAE710B5431E0A44914200D12E
:1041B00010BD11F8014B03F8014FF7E7C9B20244F3
:1041C0000346934200D1704703F8011BF9E74FF013
:1041D000FF307047034600201A5C0AB1884200D1C4
:1041E00070470130F8E7062808D14FF080430122DC
:1041F000C3F80025BFF34F8F20BFFDE770470023B2
:1042000083F31188BFF36F8F70470369C9B20C2223
:1042100001FB0233186C00F0070070474FF02003D9
:10422000EFF3118283F31288BFF36F8F036803F0FB
:10423000C00343F00203036082F31188BFF36F8F62
:10424000704770B5C9B203694FF02004EFF31185D0
:1042500084F31288BFF36F8F0C2606FB0134246CA5
:1042600014F0C00408D0A24206D085F31188BFF331
:104270006F8F4FF0FF3070BD06FB013301221A64CF
:1042800085F31188BFF36F8F436803EBC1035B684D
:1042900098470020EFE78022FFF7D3BFF8B5069FCD
:1042A0000469C9B24FF02005EFF3118685F3128837
:1042B000BFF36F8F0C2505FB0144256C05F0070C3F
:1042C000BCF1010F0CD1276486F31188BFF36F8F07
:1042D000C4E90E23436853F8313098470020F8BDF5
:1042E00005F0C005AF4286F31188BFF36F8F0CBF96
:1042F0006FF077004FF0FF30F1E713B580240094A2
:10430000FFF7CCFF02B010BD10B40069CBB21C2483
:1043100003FB0400002110BC1047002000F005B989
:10432000002000F03EB91046FFF722B943685B68F1
:10433000D3F810350B600020704743685B6802EAD1
:10434000010021EA0201C3F80805C3F80C1500209A
:10435000704743685B680020C3F8081570474368DE
:104360005B680020C3F80C15704743685A68D2F8A0
:10437000043521EA03000B40C2F80805C2F80C35E9
:104380000020704710B503695868F8B1884219D108
:104390009C6808685860A14200D1986000200860BD
:1043A0002AB15A680A609A68596002B99960002077
:1043B00010E0814206D10868206098688142EDD102
:1043C0009C60EBE7044600680028F2D1002AE8D19F
:1043D0006FF0150010BD30B543681360057A44686E
:1043E00004EBC504A34202D36FF0010030BD5C7939
:1043F0008C4201D00833F0E70020F7E702690B4652
:10440000D2E9010183E803000020704743681B687C
:10441000D3F88004C3F880047047436802691B68BE
:10442000D3F8100150B15269002012780A70C3F815
:104430001001D3F8102101221A6070474FF0FF30AD
:10444000704702680346D2F8580140B95B689B0781
:1044500006D4D2F82001003818BF0120704701208F
:10446000704742681368D3F80413C90518D5D3F808
:104470002011A9B14FF02000EFF3118180F31288D1
:10448000BFF36F8FD3F8200130B10020C3F82001B3
:10449000D3F820010120D86081F31188BFF36F8F1A
:1044A0005268D20615D54FF02001EFF3118281F347
:1044B0001288BFF36F8FD3F8581111B10021C3F8E0
:1044C00000154FF48001C3F8081382F31188BFF37D
:1044D0006F8F7047704700F150039B009BB203F150
:1044E000804303F5883300221A601B68704708B5C3
:1044F000FDF764FF08BD004700F0C4B9C00000F13B
:10450000804000F5F830C0F81015C0F81425704749
:1045100008B50020FCF7F8FD08B9FCF7E7FD4FF0FF
:1045200080430022C3F8182508BD08B510B1012842
:104530002CD008BD4FF08042D2F81814D2F81834AD
:10454000C80317D503F00303012B04D013B10020D7
:10455000FEF720FA00234FF08042C2F818350023FE
:10456000C2F80431D2F804310223C2F80433012323
:104570009360DEE7D2F81434D907EBD5D2F81C34B7
:104580009B07E4D40223C2F80433D2E74FF0804300
:104590000022C3F80021D3F80021C3F804031860F7
:1045A000C7E7FEF7F7B9F7B5019001A8DDE90847BD
:1045B00016461D46FEF794FA019BB6F1000C18BF93
:1045C0004FF0010C00EB83000B1E18BF0123002DE0
:1045D00043EA4C0314BF4FF00C0C4FF0000C002CBE
:1045E00043EA0C0314BF4FF4E06C4FF0000C002FB3
:1045F00043EA0C03D0F8002714BF4FF4403C4FF0BF
:10460000000C43EA0C0322EA030301B109780EB15E
:104610003678760019430DB12D78AD0031430CB1D9
:104620002478240229430FB13F783F040C433C43D4
:10463000C0F8004703B0F0BD1FB50DF10F030193A3
:1046400000238DF80F1000931A461946FFF7ABFFB1
:1046500005B05DF804FBFEF7ADBD08B5FFF7FBFF45
:10466000002008BD704740B1C368587810F00100C1
:104670001EBF1878B0FA80F0400970474FF0200252
:10468000EFF3118382F31288BFF36F8FFEE708B553
:10469000FFF7F4FFF8B505460E464FF02003EFF3A1
:1046A000118783F31288BFF36F8FFFF743FA314608
:1046B00004462846FFF7EBFF87F31188BFF36F8F9F
:1046C0002046BDE8F840FCF7ABBFFFF777BDFFF72A
:1046D0006ABDEFF30580003818BF0120704708B5A8
:1046E000FCF7A8FBBDE80840FFF7F4BED0E90032B4
:1046F00013605A600023C0E90033704708B5FFF724
:10470000F5FF437B23F0020343730023836008BD5E
:1047100038B504460D46FFF759F8637B43F00203B2
:104720006373E5B1A5602B689D4209D16B68C4E94C
:1047300000531C606C6012E06A689342F6D01B68FC
:10474000002BF3D094F90E2093F90E108A42F3D087
:104750009142F1DD5A68C4E9003214605C6038BDF2
:1047600010B54FF02003EFF3118483F31288BFF3E9
:104770006F8FFEF7F7FF84F31188BFF36F8F10BDC3
:1047800038B504464FF02003EFF3118583F3128808
:10479000BFF36F8F437B13F0280F0BD183680BB1EE
:1047A000FFF7ACFF637B51B903F0FB036373204653
:1047B000FEF7D8FF85F31188BFF36F8F38BD03F084
:1047C000EB03F3E701211838FFF7DABF38B54FF0F4
:1047D0002003EFF3118583F31288BFF36F8F046812
:1047E000A0420DD034B12046FFF788FF04F1180035
:1047F00000F01EF885F31188BFF36F8F204638BD97
:104800000024F7E7034620B9EFF305820AB9FCF765
:10481000C9BC83F31188BFF36F8F70474FF020033B
:10482000EFF3118083F31288BFF36F8FFFF7EABFB6
:1048300010B54FF02002EFF3118482F31288BFF31A
:104840006F8F03683BB1FFF71FFA002084F31188D4
:10485000BFF36F8F10BD6FF01500F7E710B54FF085
:104860002003EFF3118483F31288BFF36F8FFFF7F8
:10487000EBF984F31188BFF36F8F10BD08B5FFF714
:0C488000FFFA08BD08B1FCF7D1BF70477B
:08488C00A8B8FF7F0100000045
:10489400E917000000000000B5180000D44800002B
:1048A4005B46000000000000591C0000E8480000BE
:1048B400591C0000FC4800001D21000010490000A4
:1048C400251B00000000000031250000000000004E
:1048D4004B4C0000404B0000504B0000B80000203F
:1048E40044020020684C00006C4B00008C4B00001C
:1048F400BA00002098020020764C00007C4B000097
:104904008C4B0000BC000020A4020020844C00005A
:10491400B04B0000E44B0000BE0000201400002057
:10492400792A0000F7440000000000006F410000F5
:104934001049000063440000000000006F410000C3
:10494400000000006F410000000000006F41000003
:104954000D300000F7440000000000006F4100002B
:10496400000000006F410000000000006F410000E3
:10497400000000006F410000000000006F410000D3
:10498400000000006F410000000000006F410000C3
:10499400000000006F410000000000006F410000B3
:1049A400000000006F41000000000000C12500006D
:1049B400000000006F410000000000006F41000093
:1049C400000000006F410000000000006F41000083
:1049D400000000006F410000000000006F41000073
:1049E400000000006F410000000000006F41000063
:1049F400000000006F410000000000006F41000053
:104A0400000000006F410000000000006F41000042
:104A1400000000006F410000000000006F41000032
:104A2400000000006F410000000000006F41000022
:104A3400000000006F410000000000006F41000012
:104A4400000000006F410000000000006F41000002
:104A5400000000006F410000000000006F410000F2
:104A6400000000006F410000000000006F410000E2
:104A7400000000006F410000000000006F410000D2
:104A8400000000006F410000000000006F410000C2
:104A9400000000006F410000000000006F410000B2
:104AA400AE4C000000000000B94C00000000000003
:104AB400C54C000000000000144C00000000000081
:104AC4005A4C0000000000002E4C000000000000C2
:104AD400E74C0000000000002B4C00000000000028
:104AE400474C000000000000924C00000000000051
:0C4AF400FFFFFFFFFFFFFFFFFFFFFFFFC2
:104B00000338FDD8704700000000002000000000BE
:104B100000000B06020000001C4B0000000000001B
:104B2000324C000026000207000000203A4C000032
:104B300022000B1171180000411800000000000055
:104B40005D190000F51900001B430000214300001F
:104B5000C119000097420000FB4200000000000065
:104B60000B4200000000000000000000FFFF0000FA
:104B7000000300500000000001000000FFFFFFFFE5
:104B8000000000500000000000000000DD1C0000DC
:104B90002D4300003B430000534300005F430000EF
:104BA0006B430000751B00008543000000000000FF
:104BB000002000400200000000000000C04B000088
:104BC00000200040CC4B000001000000D44B00004E
:104BD000040000000600000005000200880101003A
:104BE000870103001B440000052200000D44000063
:104BF000B51F0000FD430000F5FFFFFF94480000D3
:104C000094480000CC480000D4480000D44800007C
:104C1000D448000063627072696E74665F7061638D
:104C20006B61676500286E696C2900706D006D709E
:104C30007500464C4153485F30005352414D5F3040
:104C400000000001000000736F6300636C6F636B12
:104C500040343030303030303000636C6F636B5F25
:104C6000636F6E74726F6C006770696F40353030BF
:104C70003030333030006770696F4035303030305D
:104C80003030300075617274403430303032303042
:104C90003000756172745F6E7266785F75617274F0
:104CA00065000000000000010100000000004E52FD
:104CB00046585F434C4F434B004E5246585F475057
:104CC000494F5445004E5246585F50504900546574
:104CD000726D696E616C00525454005345474745EC
:104CE00052006D61696E006F73002A2A2A20426F9C
:104CF0006F74696E67205A6570687972204F53200F
:104D00006275696C64207A65706879722D76332ECD
:104D1000342E302D313132312D673736363633343B
:0C4D2000343463316661202A2A2A0A001C
:104D2C00FFFFFFFFFFFFFFFFC33E0000FFFFFFFF82
:104D3C00CF4100000000000000C201000001030090
:104D4C0000000000A6030020A503002000000000C6
:104D5C000000000000000000000000000000000047
:104D6C000000000000000000000000000000000037
:104D7C000000000000000000000000000000000027
:104D8C000000000000000000000000000000000017
:104D9C000000000000000000000000000000000007
:104DAC0000000000000000000000000000000000F7
:104DBC0000000000000000000000000000000000E7
:104DCC00FF0000000000000000000000FFFF0F00CB
:084DDC00B0000020B00000202F
:084DE4000000000000000000C7
:044DEC0015E015E0D9
:04000003000015F1F3
:00000001FF
